:100000000C942A000C9434000C9434000C943400AA
:100010000C9434000C9434000C9434000C94340090
:100020000C9434000C9434000C9434000C94340080
:100030000C9434000C9434000C9434000C94340070
:100040000C9434000C9434000C9434000C94340060
:100050000C94340011241FBECFE5D8E0DEBFCDBF25
:100060000E94EC010C942B020C940000442319F024
:100070004130C9F10895813091F028F08230D9F0F3
:10008000833029F108952AB381E090E002C0880FFF
:10009000991F6A95E2F7809582238ABB089527B35A
:1000A00081E090E002C0880F991F6A95E2F7809581
:1000B000822387BB089524B381E090E002C0880FBB
:1000C000991F6A95E2F78095822384BB089521B336
:1000D00081E090E002C0880F991F6A95E2F7809551
:1000E000822381BB0895813089F028F08230C9F0E5
:1000F000833011F108952AB381E090E002C0880FA7
:10010000991F6A95E2F7822B8ABB089527B381E095
:1001100090E002C0880F991F6A95E2F7822B87BB97
:10012000089524B381E090E002C0880F991F6A957A
:10013000E2F7822B84BB089521B381E090E002C0F6
:10014000880F991F6A95E2F7822B81BB089544239B
:1001500019F04130C9F10895813091F028F08230D2
:10016000D9F0833029F108952BB381E090E002C0EB
:10017000880F991F6A95E2F7809582238BBB0895BB
:1001800028B381E090E002C0880F991F6A95E2F7DA
:100190008095822388BB089525B381E090E002C05A
:1001A000880F991F6A95E2F78095822385BB089591
:1001B00022B381E090E002C0880F991F6A95E2F7B0
:1001C0008095822382BB0895813089F028F08230A7
:1001D000C9F0833011F108952BB381E090E002C0A3
:1001E000880F991F6A95E2F7822B8BBB089528B37D
:1001F00081E090E002C0880F991F6A95E2F7822B98
:1002000088BB089525B381E090E002C0880F991F54
:100210006A95E2F7822B85BB089522B381E090E0D6
:1002200002C0880F991F6A95E2F7822B82BB08955E
:10023000CF93C82F40E061E081E00E94A70040E03A
:1002400062E081E00E94A70040E063E081E00E945C
:10025000A7008BB39C2F907F8F70892B8BBB41E0C5
:1002600063E081E00E94A7008FE99FE00197F1F72A
:1002700000C0000040E063E081E00E94A70020E1B0
:10028000C29FC00111249BB39F70892B8BBB41E09F
:1002900063E081E00E94A7008FE99FE00197F1F7FA
:1002A00000C0000040E063E081E00E94A7008FE30F
:1002B0009FE10197F1F700C00000CF91089541E060
:1002C00061E081E00E94360041E062E081E00E944E
:1002D000360041E063E081E00E94360041E064E0E6
:1002E00080E00E94360041E065E080E00E94360038
:1002F00041E066E080E00E94360041E067E080E097
:100300000E9436002FEF81EE94E021508040904013
:10031000E1F700C0000082E00E94180183E30E9420
:10032000180182E30E94180188E20E9418018CE003
:100330000E94180181E00E94180186E00E941801C5
:100340000895CF93C82F41E061E081E00E94A700AB
:1003500040E062E081E00E94A70040E063E081E0CD
:100360000E94A7008BB39C2F907F8F70892B8BBB33
:1003700041E063E081E00E94A7008FE99FE00197E0
:10038000F1F700C0000040E063E081E00E94A700B8
:1003900020E1C29FC00111249BB39F70892B8BBBAE
:1003A00041E063E081E00E94A7008FE99FE00197B0
:1003B000F1F700C0000040E063E081E00E94A70088
:1003C0008FE39FE10197F1F700C00000CF910895FE
:1003D00081E00E94180108950E9406020E941F02F7
:1003E0000E945F010E94E8010E942702C82F0E941C
:1003F000A1018C2F0E941B022FEF84E39CE021506F
:1004000080409040E1F700C00000EECF8EB18E7FBB
:100410008EB987B3806187BB87B3806287BB87B3A0
:100420008F7B87BB87B3806887BB83E58DB988B333
:100430008F7E88BB08958FB9779BFECF089588E1A2
:100440008AB986E880BD87E689B910BC08955F9BAC
:0A045000FECF8CB10895F894FFCFA1
:00000001FF
