S015000050524F4A4543545F534C4156452E737265631E
S11300000C942A000C9434000C9434000C943400A6
S11300100C9434000C9434000C9434000C9434008C
S11300200C9434000C9434000C9434000C9434007C
S11300300C9434000C9434000C9434000C9434006C
S11300400C9434000C9434000C9434000C9434005C
S11300500C94340011241FBECFE5D8E0DEBFCDBF21
S11300600E9420020C94E2020C940000442319F034
S11300704130C9F10895813091F028F08230D9F0EF
S1130080833029F108952AB381E090E002C0880FFB
S1130090991F6A95E2F7809582238ABB089527B356
S11300A081E090E002C0880F991F6A95E2F780957D
S11300B0822387BB089524B381E090E002C0880FB7
S11300C0991F6A95E2F78095822384BB089521B332
S11300D081E090E002C0880F991F6A95E2F780954D
S11300E0822381BB0895813089F028F08230C9F0E1
S11300F0833011F108952AB381E090E002C0880FA3
S1130100991F6A95E2F7822B8ABB089527B381E091
S113011090E002C0880F991F6A95E2F7822B87BB93
S1130120089524B381E090E002C0880F991F6A9576
S1130130E2F7822B84BB089521B381E090E002C0F2
S1130140880F991F6A95E2F7822B81BB0895442397
S113015019F04130C9F10895813091F028F08230CE
S1130160D9F0833029F108952BB381E090E002C0E7
S1130170880F991F6A95E2F7809582238BBB0895B7
S113018028B381E090E002C0880F991F6A95E2F7D6
S11301908095822388BB089525B381E090E002C056
S11301A0880F991F6A95E2F78095822385BB08958D
S11301B022B381E090E002C0880F991F6A95E2F7AC
S11301C08095822382BB0895813089F028F08230A3
S11301D0C9F0833011F108952BB381E090E002C09F
S11301E0880F991F6A95E2F7822B8BBB089528B379
S11301F081E090E002C0880F991F6A95E2F7822B94
S113020088BB089525B381E090E002C0880F991F50
S11302106A95E2F7822B85BB089522B381E090E0D2
S113022002C0880F991F6A95E2F7822B82BB08955A
S1130230813089F028F08230C9F0833011F10895BB
S11302402BB381E090E002C0880F991F6A95E2F712
S113025082278BBB089528B381E090E002C0880F09
S1130260991F6A95E2F7822788BB089525B381E038
S113027090E002C0880F991F6A95E2F7822785BB38
S1130280089522B381E090E002C0880F991F6A9517
S1130290E2F7822782BB0895CF93C82F40E061E044
S11302A081E00E94A70040E062E081E00E94A70094
S11302B040E063E081E00E94A7008BB39C2F907F15
S11302C08F70892B8BBB41E063E081E00E94A70023
S11302D08FE99FE00197F1F700C0000040E063E080
S11302E081E00E94A70020E1C29FC00111249BB3BA
S11302F09F70892B8BBB41E063E081E00E94A700E3
S11303008FE99FE00197F1F700C0000040E063E04F
S113031081E00E94A7008FE39FE10197F1F700C0FD
S11303200000CF91089541E061E081E00E94360031
S113033041E062E081E00E94360041E063E081E058
S11303400E94360041E064E080E00E94360041E013
S113035065E080E00E94360041E066E080E00E94B3
S1130360360041E067E080E00E9436002FEF81EE26
S113037094E0215080409040E1F700C0000082E00A
S11303800E944C0183E30E944C0182E30E944C01D1
S113039088E20E944C018CE00E944C0181E00E94A2
S11303A04C0186E00E944C010895CF93C82F41E090
S11303B061E081E00E94A70040E062E081E00E94E9
S11303C0A70040E063E081E00E94A7008BB39C2F6C
S11303D0907F8F70892B8BBB41E063E081E00E94AA
S11303E0A7008FE99FE00197F1F700C0000040E00B
S11303F063E081E00E94A70020E1C29FC0011124B4
S11304009BB39F70892B8BBB41E063E081E00E942A
S1130410A7008FE99FE00197F1F700C0000040E0DA
S113042063E081E00E94A7008FE39FE10197F1F769
S113043000C00000CF91089581E00E944C0108950E
S11304400E94CC020E9487020E949E020E94B50272
S11304500E9493010E941C020E94DE02C82F0E9487
S1130460D501C13681F40E948D020E94AA020E9425
S1130470C1022FE78AE196E0215080409040E1F7E5
S113048000C00000E9CFC23681F40E9493020E94AA
S1130490A4020E94C1022FE78AE196E02150804025
S11304A09040E1F700C00000D7CFC33681F40E942A
S11304B093020E94AA020E94BB022FE78AE196E0FF
S11304C0215080409040E1F700C00000C5CF0E9459
S11304D093020E94AA020E94C102C0E00E949902F3
S11304E00E94B0020E94C7022FE78AE196E02150E1
S11304F080409040E1F700C00000CF5FCA3071F740
S11305000E948D020E94A4020E94BB02A5CF41E07A
S113051062E082E00E943600089541E062E082E0F9
S11305200E94A700089540E062E082E00E94A700D4
S1130530089562E082E00E941801089541E067E0B6
S113054082E00E943600089541E067E082E00E9464
S1130550A700089540E067E082E00E94A7000895A4
S113056067E082E00E941801089541E063E083E0BF
S11305700E943600089541E063E083E00E94A700F2
S1130580089540E063E083E00E94A700089563E0DB
S113059083E00E94180108958EB18E7F8EB987B3CF
S11305A08F7E87BB87B38F7D87BB87B3806487BB10
S11305B087B38F7787BB83E48DB90895779BFECF8C
S10B05C08FB10895F894FFCFF8
S9030000FC
